{
  "_format": "hh-sol-artifact-1",
  "contractName": "AIArtNFT",
  "sourceName": "contracts/AIArtNFT.sol",
  "abi": [
    {
      "inputs": [],
      "stateMutability": "nonpayable",
      "type": "constructor"
    },
    {
      "inputs": [
        {
          "internalType": "address",
          "name": "sender",
          "type": "address"
        },
        {
          "internalType": "uint256",
          "name": "tokenId",
          "type": "uint256"
        },
        {
          "internalType": "address",
          "name": "owner",
          "type": "address"
        }
      ],
      "name": "ERC721IncorrectOwner",
      "type": "error"
    },
    {
      "inputs": [
        {
          "internalType": "address",
          "name": "operator",
          "type": "address"
        },
        {
          "internalType": "uint256",
          "name": "tokenId",
          "type": "uint256"
        }
      ],
      "name": "ERC721InsufficientApproval",
      "type": "error"
    },
    {
      "inputs": [
        {
          "internalType": "address",
          "name": "approver",
          "type": "address"
        }
      ],
      "name": "ERC721InvalidApprover",
      "type": "error"
    },
    {
      "inputs": [
        {
          "internalType": "address",
          "name": "operator",
          "type": "address"
        }
      ],
      "name": "ERC721InvalidOperator",
      "type": "error"
    },
    {
      "inputs": [
        {
          "internalType": "address",
          "name": "owner",
          "type": "address"
        }
      ],
      "name": "ERC721InvalidOwner",
      "type": "error"
    },
    {
      "inputs": [
        {
          "internalType": "address",
          "name": "receiver",
          "type": "address"
        }
      ],
      "name": "ERC721InvalidReceiver",
      "type": "error"
    },
    {
      "inputs": [
        {
          "internalType": "address",
          "name": "sender",
          "type": "address"
        }
      ],
      "name": "ERC721InvalidSender",
      "type": "error"
    },
    {
      "inputs": [
        {
          "internalType": "uint256",
          "name": "tokenId",
          "type": "uint256"
        }
      ],
      "name": "ERC721NonexistentToken",
      "type": "error"
    },
    {
      "inputs": [
        {
          "internalType": "address",
          "name": "owner",
          "type": "address"
        }
      ],
      "name": "OwnableInvalidOwner",
      "type": "error"
    },
    {
      "inputs": [
        {
          "internalType": "address",
          "name": "account",
          "type": "address"
        }
      ],
      "name": "OwnableUnauthorizedAccount",
      "type": "error"
    },
    {
      "anonymous": false,
      "inputs": [
        {
          "indexed": true,
          "internalType": "address",
          "name": "owner",
          "type": "address"
        },
        {
          "indexed": true,
          "internalType": "address",
          "name": "approved",
          "type": "address"
        },
        {
          "indexed": true,
          "internalType": "uint256",
          "name": "tokenId",
          "type": "uint256"
        }
      ],
      "name": "Approval",
      "type": "event"
    },
    {
      "anonymous": false,
      "inputs": [
        {
          "indexed": true,
          "internalType": "address",
          "name": "owner",
          "type": "address"
        },
        {
          "indexed": true,
          "internalType": "address",
          "name": "operator",
          "type": "address"
        },
        {
          "indexed": false,
          "internalType": "bool",
          "name": "approved",
          "type": "bool"
        }
      ],
      "name": "ApprovalForAll",
      "type": "event"
    },
    {
      "anonymous": false,
      "inputs": [
        {
          "indexed": false,
          "internalType": "uint256",
          "name": "_fromTokenId",
          "type": "uint256"
        },
        {
          "indexed": false,
          "internalType": "uint256",
          "name": "_toTokenId",
          "type": "uint256"
        }
      ],
      "name": "BatchMetadataUpdate",
      "type": "event"
    },
    {
      "anonymous": false,
      "inputs": [
        {
          "indexed": false,
          "internalType": "uint256",
          "name": "_tokenId",
          "type": "uint256"
        }
      ],
      "name": "MetadataUpdate",
      "type": "event"
    },
    {
      "anonymous": false,
      "inputs": [
        {
          "indexed": false,
          "internalType": "address",
          "name": "to",
          "type": "address"
        },
        {
          "indexed": false,
          "internalType": "uint256",
          "name": "tokenId",
          "type": "uint256"
        },
        {
          "indexed": false,
          "internalType": "string",
          "name": "metadataURI",
          "type": "string"
        }
      ],
      "name": "NFTMinted",
      "type": "event"
    },
    {
      "anonymous": false,
      "inputs": [
        {
          "indexed": true,
          "internalType": "address",
          "name": "previousOwner",
          "type": "address"
        },
        {
          "indexed": true,
          "internalType": "address",
          "name": "newOwner",
          "type": "address"
        }
      ],
      "name": "OwnershipTransferred",
      "type": "event"
    },
    {
      "anonymous": false,
      "inputs": [
        {
          "indexed": true,
          "internalType": "address",
          "name": "from",
          "type": "address"
        },
        {
          "indexed": true,
          "internalType": "address",
          "name": "to",
          "type": "address"
        },
        {
          "indexed": true,
          "internalType": "uint256",
          "name": "tokenId",
          "type": "uint256"
        }
      ],
      "name": "Transfer",
      "type": "event"
    },
    {
      "inputs": [
        {
          "internalType": "address",
          "name": "to",
          "type": "address"
        },
        {
          "internalType": "uint256",
          "name": "tokenId",
          "type": "uint256"
        }
      ],
      "name": "approve",
      "outputs": [],
      "stateMutability": "nonpayable",
      "type": "function"
    },
    {
      "inputs": [
        {
          "internalType": "address",
          "name": "owner",
          "type": "address"
        }
      ],
      "name": "balanceOf",
      "outputs": [
        {
          "internalType": "uint256",
          "name": "",
          "type": "uint256"
        }
      ],
      "stateMutability": "view",
      "type": "function"
    },
    {
      "inputs": [
        {
          "internalType": "uint256",
          "name": "tokenId",
          "type": "uint256"
        }
      ],
      "name": "getApproved",
      "outputs": [
        {
          "internalType": "address",
          "name": "",
          "type": "address"
        }
      ],
      "stateMutability": "view",
      "type": "function"
    },
    {
      "inputs": [
        {
          "internalType": "address",
          "name": "owner",
          "type": "address"
        },
        {
          "internalType": "address",
          "name": "operator",
          "type": "address"
        }
      ],
      "name": "isApprovedForAll",
      "outputs": [
        {
          "internalType": "bool",
          "name": "",
          "type": "bool"
        }
      ],
      "stateMutability": "view",
      "type": "function"
    },
    {
      "inputs": [
        {
          "internalType": "address",
          "name": "to",
          "type": "address"
        },
        {
          "internalType": "string",
          "name": "metadataURI",
          "type": "string"
        }
      ],
      "name": "mintNFT",
      "outputs": [],
      "stateMutability": "nonpayable",
      "type": "function"
    },
    {
      "inputs": [
        {
          "internalType": "string",
          "name": "metadataURI",
          "type": "string"
        }
      ],
      "name": "mintToSender",
      "outputs": [],
      "stateMutability": "nonpayable",
      "type": "function"
    },
    {
      "inputs": [],
      "name": "name",
      "outputs": [
        {
          "internalType": "string",
          "name": "",
          "type": "string"
        }
      ],
      "stateMutability": "view",
      "type": "function"
    },
    {
      "inputs": [],
      "name": "nextTokenId",
      "outputs": [
        {
          "internalType": "uint256",
          "name": "",
          "type": "uint256"
        }
      ],
      "stateMutability": "view",
      "type": "function"
    },
    {
      "inputs": [],
      "name": "owner",
      "outputs": [
        {
          "internalType": "address",
          "name": "",
          "type": "address"
        }
      ],
      "stateMutability": "view",
      "type": "function"
    },
    {
      "inputs": [
        {
          "internalType": "uint256",
          "name": "tokenId",
          "type": "uint256"
        }
      ],
      "name": "ownerOf",
      "outputs": [
        {
          "internalType": "address",
          "name": "",
          "type": "address"
        }
      ],
      "stateMutability": "view",
      "type": "function"
    },
    {
      "inputs": [],
      "name": "renounceOwnership",
      "outputs": [],
      "stateMutability": "nonpayable",
      "type": "function"
    },
    {
      "inputs": [
        {
          "internalType": "address",
          "name": "from",
          "type": "address"
        },
        {
          "internalType": "address",
          "name": "to",
          "type": "address"
        },
        {
          "internalType": "uint256",
          "name": "tokenId",
          "type": "uint256"
        }
      ],
      "name": "safeTransferFrom",
      "outputs": [],
      "stateMutability": "nonpayable",
      "type": "function"
    },
    {
      "inputs": [
        {
          "internalType": "address",
          "name": "from",
          "type": "address"
        },
        {
          "internalType": "address",
          "name": "to",
          "type": "address"
        },
        {
          "internalType": "uint256",
          "name": "tokenId",
          "type": "uint256"
        },
        {
          "internalType": "bytes",
          "name": "data",
          "type": "bytes"
        }
      ],
      "name": "safeTransferFrom",
      "outputs": [],
      "stateMutability": "nonpayable",
      "type": "function"
    },
    {
      "inputs": [
        {
          "internalType": "address",
          "name": "operator",
          "type": "address"
        },
        {
          "internalType": "bool",
          "name": "approved",
          "type": "bool"
        }
      ],
      "name": "setApprovalForAll",
      "outputs": [],
      "stateMutability": "nonpayable",
      "type": "function"
    },
    {
      "inputs": [
        {
          "internalType": "bytes4",
          "name": "interfaceId",
          "type": "bytes4"
        }
      ],
      "name": "supportsInterface",
      "outputs": [
        {
          "internalType": "bool",
          "name": "",
          "type": "bool"
        }
      ],
      "stateMutability": "view",
      "type": "function"
    },
    {
      "inputs": [],
      "name": "symbol",
      "outputs": [
        {
          "internalType": "string",
          "name": "",
          "type": "string"
        }
      ],
      "stateMutability": "view",
      "type": "function"
    },
    {
      "inputs": [
        {
          "internalType": "uint256",
          "name": "tokenId",
          "type": "uint256"
        }
      ],
      "name": "tokenURI",
      "outputs": [
        {
          "internalType": "string",
          "name": "",
          "type": "string"
        }
      ],
      "stateMutability": "view",
      "type": "function"
    },
    {
      "inputs": [
        {
          "internalType": "address",
          "name": "from",
          "type": "address"
        },
        {
          "internalType": "address",
          "name": "to",
          "type": "address"
        },
        {
          "internalType": "uint256",
          "name": "tokenId",
          "type": "uint256"
        }
      ],
      "name": "transferFrom",
      "outputs": [],
      "stateMutability": "nonpayable",
      "type": "function"
    },
    {
      "inputs": [
        {
          "internalType": "address",
          "name": "newOwner",
          "type": "address"
        }
      ],
      "name": "transferOwnership",
      "outputs": [],
      "stateMutability": "nonpayable",
      "type": "function"
    }
  ],
  "bytecode": "0x60806040523480156200001157600080fd5b50336040518060400160405280600a81526020017f414920417274204e4654000000000000000000000000000000000000000000008152506040518060400160405280600581526020017f4149415254000000000000000000000000000000000000000000000000000000815250816000908162000090919062000472565b508060019081620000a2919062000472565b505050600073ffffffffffffffffffffffffffffffffffffffff168173ffffffffffffffffffffffffffffffffffffffff16036200011a5760006040517f1e4fbdf70000000000000000000000000000000000000000000000000000000081526004016200011191906200059e565b60405180910390fd5b6200012b816200013260201b60201c565b50620005bb565b6000600760009054906101000a900473ffffffffffffffffffffffffffffffffffffffff16905081600760006101000a81548173ffffffffffffffffffffffffffffffffffffffff021916908373ffffffffffffffffffffffffffffffffffffffff1602179055508173ffffffffffffffffffffffffffffffffffffffff168173ffffffffffffffffffffffffffffffffffffffff167f8be0079c531659141344cd1fd0a4f28419497f9722a3daafe3b4186f6b6457e060405160405180910390a35050565b600081519050919050565b7f4e487b7100000000000000000000000000000000000000000000000000000000600052604160045260246000fd5b7f4e487b7100000000000000000000000000000000000000000000000000000000600052602260045260246000fd5b600060028204905060018216806200027a57607f821691505b60208210810362000290576200028f62000232565b5b50919050565b60008190508160005260206000209050919050565b60006020601f8301049050919050565b600082821b905092915050565b600060088302620002fa7fffffffffffffffffffffffffffffffffffffffffffffffffffffffffffffffff82620002bb565b620003068683620002bb565b95508019841693508086168417925050509392505050565b6000819050919050565b6000819050919050565b6000620003536200034d62000347846200031e565b62000328565b6200031e565b9050919050565b6000819050919050565b6200036f8362000332565b620003876200037e826200035a565b848454620002c8565b825550505050565b600090565b6200039e6200038f565b620003ab81848462000364565b505050565b5b81811015620003d357620003c760008262000394565b600181019050620003b1565b5050565b601f8211156200042257620003ec8162000296565b620003f784620002ab565b8101602085101562000407578190505b6200041f6200041685620002ab565b830182620003b0565b50505b505050565b600082821c905092915050565b6000620004476000198460080262000427565b1980831691505092915050565b600062000462838362000434565b9150826002028217905092915050565b6200047d82620001f8565b67ffffffffffffffff81111562000499576200049862000203565b5b620004a5825462000261565b620004b2828285620003d7565b600060209050601f831160018114620004ea5760008415620004d5578287015190505b620004e1858262000454565b86555062000551565b601f198416620004fa8662000296565b60005b828110156200052457848901518255600182019150602085019450602081019050620004fd565b8683101562000544578489015162000540601f89168262000434565b8355505b6001600288020188555050505b505050505050565b600073ffffffffffffffffffffffffffffffffffffffff82169050919050565b6000620005868262000559565b9050919050565b620005988162000579565b82525050565b6000602082019050620005b560008301846200058d565b92915050565b6127f180620005cb6000396000f3fe608060405234801561001057600080fd5b50600436106101205760003560e01c8063715018a6116100ad578063b88d4fde11610071578063b88d4fde146102f3578063c87b56dd1461030f578063e985e9c51461033f578063eacabe141461036f578063f2fde38b1461038b57610120565b8063715018a61461027357806375794a3c1461027d5780638da5cb5b1461029b57806395d89b41146102b9578063a22cb465146102d757610120565b8063095ea7b3116100f4578063095ea7b3146101bf57806323b872dd146101db57806342842e0e146101f75780636352211e1461021357806370a082311461024357610120565b806293e72c1461012557806301ffc9a71461014157806306fdde0314610171578063081812fc1461018f575b600080fd5b61013f600480360381019061013a9190611cb0565b6103a7565b005b61015b60048036038101906101569190611d51565b610419565b6040516101689190611d99565b60405180910390f35b61017961047a565b6040516101869190611e33565b60405180910390f35b6101a960048036038101906101a49190611e8b565b61050c565b6040516101b69190611ef9565b60405180910390f35b6101d960048036038101906101d49190611f40565b610528565b005b6101f560048036038101906101f09190611f80565b61053e565b005b610211600480360381019061020c9190611f80565b610640565b005b61022d60048036038101906102289190611e8b565b610660565b60405161023a9190611ef9565b60405180910390f35b61025d60048036038101906102589190611fd3565b610672565b60405161026a919061200f565b60405180910390f35b61027b61072c565b005b610285610740565b604051610292919061200f565b60405180910390f35b6102a3610746565b6040516102b09190611ef9565b60405180910390f35b6102c1610770565b6040516102ce9190611e33565b60405180910390f35b6102f160048036038101906102ec9190612056565b610802565b005b61030d60048036038101906103089190612137565b610818565b005b61032960048036038101906103249190611e8b565b61083d565b6040516103369190611e33565b60405180910390f35b610359600480360381019061035491906121ba565b610950565b6040516103669190611d99565b60405180910390f35b610389600480360381019061038491906121fa565b6109e4565b005b6103a560048036038101906103a09190611fd3565b610a5f565b005b600060085490506103b83382610ae5565b6103c28183610b03565b600860008154809291906103d590612285565b91905055507fd35bb95e09c04b219e35047ce7b7b300e3384264ef84a40456943dbc0fc17c1433828460405161040d939291906122cd565b60405180910390a15050565b6000634906490660e01b7bffffffffffffffffffffffffffffffffffffffffffffffffffffffff1916827bffffffffffffffffffffffffffffffffffffffffffffffffffffffff19161480610473575061047282610b5f565b5b9050919050565b6060600080546104899061233a565b80601f01602080910402602001604051908101604052809291908181526020018280546104b59061233a565b80156105025780601f106104d757610100808354040283529160200191610502565b820191906000526020600020905b8154815290600101906020018083116104e557829003601f168201915b5050505050905090565b600061051782610c41565b5061052182610cc9565b9050919050565b61053a8282610535610d06565b610d0e565b5050565b600073ffffffffffffffffffffffffffffffffffffffff168273ffffffffffffffffffffffffffffffffffffffff16036105b05760006040517f64a0ae920000000000000000000000000000000000000000000000000000000081526004016105a79190611ef9565b60405180910390fd5b60006105c483836105bf610d06565b610d20565b90508373ffffffffffffffffffffffffffffffffffffffff168173ffffffffffffffffffffffffffffffffffffffff161461063a578382826040517f64283d7b0000000000000000000000000000000000000000000000000000000081526004016106319392919061236b565b60405180910390fd5b50505050565b61065b83838360405180602001604052806000815250610818565b505050565b600061066b82610c41565b9050919050565b60008073ffffffffffffffffffffffffffffffffffffffff168273ffffffffffffffffffffffffffffffffffffffff16036106e55760006040517f89c62b640000000000000000000000000000000000000000000000000000000081526004016106dc9190611ef9565b60405180910390fd5b600360008373ffffffffffffffffffffffffffffffffffffffff1673ffffffffffffffffffffffffffffffffffffffff168152602001908152602001600020549050919050565b610734610f3a565b61073e6000610fc1565b565b60085481565b6000600760009054906101000a900473ffffffffffffffffffffffffffffffffffffffff16905090565b60606001805461077f9061233a565b80601f01602080910402602001604051908101604052809291908181526020018280546107ab9061233a565b80156107f85780601f106107cd576101008083540402835291602001916107f8565b820191906000526020600020905b8154815290600101906020018083116107db57829003601f168201915b5050505050905090565b61081461080d610d06565b8383611087565b5050565b61082384848461053e565b61083761082e610d06565b858585856111f6565b50505050565b606061084882610c41565b5060006006600084815260200190815260200160002080546108699061233a565b80601f01602080910402602001604051908101604052809291908181526020018280546108959061233a565b80156108e25780601f106108b7576101008083540402835291602001916108e2565b820191906000526020600020905b8154815290600101906020018083116108c557829003601f168201915b5050505050905060006108f36113a7565b9050600081510361090857819250505061094b565b60008251111561093d5780826040516020016109259291906123de565b6040516020818303038152906040529250505061094b565b610946846113be565b925050505b919050565b6000600560008473ffffffffffffffffffffffffffffffffffffffff1673ffffffffffffffffffffffffffffffffffffffff16815260200190815260200160002060008373ffffffffffffffffffffffffffffffffffffffff1673ffffffffffffffffffffffffffffffffffffffff16815260200190815260200160002060009054906101000a900460ff16905092915050565b6109ec610f3a565b600060085490506109fd8382610ae5565b610a078183610b03565b60086000815480929190610a1a90612285565b91905055507fd35bb95e09c04b219e35047ce7b7b300e3384264ef84a40456943dbc0fc17c14838284604051610a52939291906122cd565b60405180910390a1505050565b610a67610f3a565b600073ffffffffffffffffffffffffffffffffffffffff168173ffffffffffffffffffffffffffffffffffffffff1603610ad95760006040517f1e4fbdf7000000000000000000000000000000000000000000000000000000008152600401610ad09190611ef9565b60405180910390fd5b610ae281610fc1565b50565b610aff828260405180602001604052806000815250611427565b5050565b80600660008481526020019081526020016000209081610b2391906125ae565b507ff8e1a15aba9398e019f0b49df1a4fde98ee17ae345cb5f6b5e2c27f5033e8ce782604051610b53919061200f565b60405180910390a15050565b60007f80ac58cd000000000000000000000000000000000000000000000000000000007bffffffffffffffffffffffffffffffffffffffffffffffffffffffff1916827bffffffffffffffffffffffffffffffffffffffffffffffffffffffff19161480610c2a57507f5b5e139f000000000000000000000000000000000000000000000000000000007bffffffffffffffffffffffffffffffffffffffffffffffffffffffff1916827bffffffffffffffffffffffffffffffffffffffffffffffffffffffff1916145b80610c3a5750610c398261144b565b5b9050919050565b600080610c4d836114b5565b9050600073ffffffffffffffffffffffffffffffffffffffff168173ffffffffffffffffffffffffffffffffffffffff1603610cc057826040517f7e273289000000000000000000000000000000000000000000000000000000008152600401610cb7919061200f565b60405180910390fd5b80915050919050565b60006004600083815260200190815260200160002060009054906101000a900473ffffffffffffffffffffffffffffffffffffffff169050919050565b600033905090565b610d1b83838360016114f2565b505050565b600080610d2c846114b5565b9050600073ffffffffffffffffffffffffffffffffffffffff168373ffffffffffffffffffffffffffffffffffffffff1614610d6e57610d6d8184866116b7565b5b600073ffffffffffffffffffffffffffffffffffffffff168173ffffffffffffffffffffffffffffffffffffffff1614610dff57610db06000856000806114f2565b6001600360008373ffffffffffffffffffffffffffffffffffffffff1673ffffffffffffffffffffffffffffffffffffffff168152602001908152602001600020600082825403925050819055505b600073ffffffffffffffffffffffffffffffffffffffff168573ffffffffffffffffffffffffffffffffffffffff1614610e82576001600360008773ffffffffffffffffffffffffffffffffffffffff1673ffffffffffffffffffffffffffffffffffffffff168152602001908152602001600020600082825401925050819055505b846002600086815260200190815260200160002060006101000a81548173ffffffffffffffffffffffffffffffffffffffff021916908373ffffffffffffffffffffffffffffffffffffffff160217905550838573ffffffffffffffffffffffffffffffffffffffff168273ffffffffffffffffffffffffffffffffffffffff167fddf252ad1be2c89b69c2b068fc378daa952ba7f163c4a11628f55a4df523b3ef60405160405180910390a4809150509392505050565b610f42610d06565b73ffffffffffffffffffffffffffffffffffffffff16610f60610746565b73ffffffffffffffffffffffffffffffffffffffff1614610fbf57610f83610d06565b6040517f118cdaa7000000000000000000000000000000000000000000000000000000008152600401610fb69190611ef9565b60405180910390fd5b565b6000600760009054906101000a900473ffffffffffffffffffffffffffffffffffffffff16905081600760006101000a81548173ffffffffffffffffffffffffffffffffffffffff021916908373ffffffffffffffffffffffffffffffffffffffff1602179055508173ffffffffffffffffffffffffffffffffffffffff168173ffffffffffffffffffffffffffffffffffffffff167f8be0079c531659141344cd1fd0a4f28419497f9722a3daafe3b4186f6b6457e060405160405180910390a35050565b600073ffffffffffffffffffffffffffffffffffffffff168273ffffffffffffffffffffffffffffffffffffffff16036110f857816040517f5b08ba180000000000000000000000000000000000000000000000000000000081526004016110ef9190611ef9565b60405180910390fd5b80600560008573ffffffffffffffffffffffffffffffffffffffff1673ffffffffffffffffffffffffffffffffffffffff16815260200190815260200160002060008473ffffffffffffffffffffffffffffffffffffffff1673ffffffffffffffffffffffffffffffffffffffff16815260200190815260200160002060006101000a81548160ff0219169083151502179055508173ffffffffffffffffffffffffffffffffffffffff168373ffffffffffffffffffffffffffffffffffffffff167f17307eab39ab6107e8899845ad3d59bd9653f200f220920489ca2b5937696c31836040516111e99190611d99565b60405180910390a3505050565b60008373ffffffffffffffffffffffffffffffffffffffff163b11156113a0578273ffffffffffffffffffffffffffffffffffffffff1663150b7a02868685856040518563ffffffff1660e01b815260040161125594939291906126d5565b6020604051808303816000875af192505050801561129157506040513d601f19601f8201168201806040525081019061128e9190612736565b60015b611315573d80600081146112c1576040519150601f19603f3d011682016040523d82523d6000602084013e6112c6565b606091505b50600081510361130d57836040517f64a0ae920000000000000000000000000000000000000000000000000000000081526004016113049190611ef9565b60405180910390fd5b805181602001fd5b63150b7a0260e01b7bffffffffffffffffffffffffffffffffffffffffffffffffffffffff1916817bffffffffffffffffffffffffffffffffffffffffffffffffffffffff19161461139e57836040517f64a0ae920000000000000000000000000000000000000000000000000000000081526004016113959190611ef9565b60405180910390fd5b505b5050505050565b606060405180602001604052806000815250905090565b60606113c982610c41565b5060006113d46113a7565b905060008151116113f4576040518060200160405280600081525061141f565b806113fe8461177b565b60405160200161140f9291906123de565b6040516020818303038152906040525b915050919050565b6114318383611849565b61144661143c610d06565b60008585856111f6565b505050565b60007f01ffc9a7000000000000000000000000000000000000000000000000000000007bffffffffffffffffffffffffffffffffffffffffffffffffffffffff1916827bffffffffffffffffffffffffffffffffffffffffffffffffffffffff1916149050919050565b60006002600083815260200190815260200160002060009054906101000a900473ffffffffffffffffffffffffffffffffffffffff169050919050565b808061152b5750600073ffffffffffffffffffffffffffffffffffffffff168273ffffffffffffffffffffffffffffffffffffffff1614155b1561165f57600061153b84610c41565b9050600073ffffffffffffffffffffffffffffffffffffffff168373ffffffffffffffffffffffffffffffffffffffff16141580156115a657508273ffffffffffffffffffffffffffffffffffffffff168173ffffffffffffffffffffffffffffffffffffffff1614155b80156115b957506115b78184610950565b155b156115fb57826040517fa9fbf51f0000000000000000000000000000000000000000000000000000000081526004016115f29190611ef9565b60405180910390fd5b811561165d57838573ffffffffffffffffffffffffffffffffffffffff168273ffffffffffffffffffffffffffffffffffffffff167f8c5be1e5ebec7d5bd14f71427d1e84f3dd0314c0f7b2291e5b200ac8c7c3b92560405160405180910390a45b505b836004600085815260200190815260200160002060006101000a81548173ffffffffffffffffffffffffffffffffffffffff021916908373ffffffffffffffffffffffffffffffffffffffff16021790555050505050565b6116c2838383611942565b61177657600073ffffffffffffffffffffffffffffffffffffffff168373ffffffffffffffffffffffffffffffffffffffff160361173757806040517f7e27328900000000000000000000000000000000000000000000000000000000815260040161172e919061200f565b60405180910390fd5b81816040517f177e802f00000000000000000000000000000000000000000000000000000000815260040161176d929190612763565b60405180910390fd5b505050565b60606000600161178a84611a03565b01905060008167ffffffffffffffff8111156117a9576117a8611b85565b5b6040519080825280601f01601f1916602001820160405280156117db5781602001600182028036833780820191505090505b509050600082602001820190505b60011561183e578080600190039150507f3031323334353637383961626364656600000000000000000000000000000000600a86061a8153600a85816118325761183161278c565b5b049450600085036117e9575b819350505050919050565b600073ffffffffffffffffffffffffffffffffffffffff168273ffffffffffffffffffffffffffffffffffffffff16036118bb5760006040517f64a0ae920000000000000000000000000000000000000000000000000000000081526004016118b29190611ef9565b60405180910390fd5b60006118c983836000610d20565b9050600073ffffffffffffffffffffffffffffffffffffffff168173ffffffffffffffffffffffffffffffffffffffff161461193d5760006040517f73c6ac6e0000000000000000000000000000000000000000000000000000000081526004016119349190611ef9565b60405180910390fd5b505050565b60008073ffffffffffffffffffffffffffffffffffffffff168373ffffffffffffffffffffffffffffffffffffffff16141580156119fa57508273ffffffffffffffffffffffffffffffffffffffff168473ffffffffffffffffffffffffffffffffffffffff1614806119bb57506119ba8484610950565b5b806119f957508273ffffffffffffffffffffffffffffffffffffffff166119e183610cc9565b73ffffffffffffffffffffffffffffffffffffffff16145b5b90509392505050565b600080600090507a184f03e93ff9f4daa797ed6e38ed64bf6a1f0100000000000000008310611a61577a184f03e93ff9f4daa797ed6e38ed64bf6a1f0100000000000000008381611a5757611a5661278c565b5b0492506040810190505b6d04ee2d6d415b85acef81000000008310611a9e576d04ee2d6d415b85acef81000000008381611a9457611a9361278c565b5b0492506020810190505b662386f26fc100008310611acd57662386f26fc100008381611ac357611ac261278c565b5b0492506010810190505b6305f5e1008310611af6576305f5e1008381611aec57611aeb61278c565b5b0492506008810190505b6127108310611b1b576127108381611b1157611b1061278c565b5b0492506004810190505b60648310611b3e5760648381611b3457611b3361278c565b5b0492506002810190505b600a8310611b4d576001810190505b80915050919050565b6000604051905090565b600080fd5b600080fd5b600080fd5b600080fd5b6000601f19601f8301169050919050565b7f4e487b7100000000000000000000000000000000000000000000000000000000600052604160045260246000fd5b611bbd82611b74565b810181811067ffffffffffffffff82111715611bdc57611bdb611b85565b5b80604052505050565b6000611bef611b56565b9050611bfb8282611bb4565b919050565b600067ffffffffffffffff821115611c1b57611c1a611b85565b5b611c2482611b74565b9050602081019050919050565b82818337600083830152505050565b6000611c53611c4e84611c00565b611be5565b905082815260208101848484011115611c6f57611c6e611b6f565b5b611c7a848285611c31565b509392505050565b600082601f830112611c9757611c96611b6a565b5b8135611ca7848260208601611c40565b91505092915050565b600060208284031215611cc657611cc5611b60565b5b600082013567ffffffffffffffff811115611ce457611ce3611b65565b5b611cf084828501611c82565b91505092915050565b60007fffffffff0000000000000000000000000000000000000000000000000000000082169050919050565b611d2e81611cf9565b8114611d3957600080fd5b50565b600081359050611d4b81611d25565b92915050565b600060208284031215611d6757611d66611b60565b5b6000611d7584828501611d3c565b91505092915050565b60008115159050919050565b611d9381611d7e565b82525050565b6000602082019050611dae6000830184611d8a565b92915050565b600081519050919050565b600082825260208201905092915050565b60005b83811015611dee578082015181840152602081019050611dd3565b60008484015250505050565b6000611e0582611db4565b611e0f8185611dbf565b9350611e1f818560208601611dd0565b611e2881611b74565b840191505092915050565b60006020820190508181036000830152611e4d8184611dfa565b905092915050565b6000819050919050565b611e6881611e55565b8114611e7357600080fd5b50565b600081359050611e8581611e5f565b92915050565b600060208284031215611ea157611ea0611b60565b5b6000611eaf84828501611e76565b91505092915050565b600073ffffffffffffffffffffffffffffffffffffffff82169050919050565b6000611ee382611eb8565b9050919050565b611ef381611ed8565b82525050565b6000602082019050611f0e6000830184611eea565b92915050565b611f1d81611ed8565b8114611f2857600080fd5b50565b600081359050611f3a81611f14565b92915050565b60008060408385031215611f5757611f56611b60565b5b6000611f6585828601611f2b565b9250506020611f7685828601611e76565b9150509250929050565b600080600060608486031215611f9957611f98611b60565b5b6000611fa786828701611f2b565b9350506020611fb886828701611f2b565b9250506040611fc986828701611e76565b9150509250925092565b600060208284031215611fe957611fe8611b60565b5b6000611ff784828501611f2b565b91505092915050565b61200981611e55565b82525050565b60006020820190506120246000830184612000565b92915050565b61203381611d7e565b811461203e57600080fd5b50565b6000813590506120508161202a565b92915050565b6000806040838503121561206d5761206c611b60565b5b600061207b85828601611f2b565b925050602061208c85828601612041565b9150509250929050565b600067ffffffffffffffff8211156120b1576120b0611b85565b5b6120ba82611b74565b9050602081019050919050565b60006120da6120d584612096565b611be5565b9050828152602081018484840111156120f6576120f5611b6f565b5b612101848285611c31565b509392505050565b600082601f83011261211e5761211d611b6a565b5b813561212e8482602086016120c7565b91505092915050565b6000806000806080858703121561215157612150611b60565b5b600061215f87828801611f2b565b945050602061217087828801611f2b565b935050604061218187828801611e76565b925050606085013567ffffffffffffffff8111156121a2576121a1611b65565b5b6121ae87828801612109565b91505092959194509250565b600080604083850312156121d1576121d0611b60565b5b60006121df85828601611f2b565b92505060206121f085828601611f2b565b9150509250929050565b6000806040838503121561221157612210611b60565b5b600061221f85828601611f2b565b925050602083013567ffffffffffffffff8111156122405761223f611b65565b5b61224c85828601611c82565b9150509250929050565b7f4e487b7100000000000000000000000000000000000000000000000000000000600052601160045260246000fd5b600061229082611e55565b91507fffffffffffffffffffffffffffffffffffffffffffffffffffffffffffffffff82036122c2576122c1612256565b5b600182019050919050565b60006060820190506122e26000830186611eea565b6122ef6020830185612000565b81810360408301526123018184611dfa565b9050949350505050565b7f4e487b7100000000000000000000000000000000000000000000000000000000600052602260045260246000fd5b6000600282049050600182168061235257607f821691505b6020821081036123655761236461230b565b5b50919050565b60006060820190506123806000830186611eea565b61238d6020830185612000565b61239a6040830184611eea565b949350505050565b600081905092915050565b60006123b882611db4565b6123c281856123a2565b93506123d2818560208601611dd0565b80840191505092915050565b60006123ea82856123ad565b91506123f682846123ad565b91508190509392505050565b60008190508160005260206000209050919050565b60006020601f8301049050919050565b600082821b905092915050565b6000600883026124647fffffffffffffffffffffffffffffffffffffffffffffffffffffffffffffffff82612427565b61246e8683612427565b95508019841693508086168417925050509392505050565b6000819050919050565b60006124ab6124a66124a184611e55565b612486565b611e55565b9050919050565b6000819050919050565b6124c583612490565b6124d96124d1826124b2565b848454612434565b825550505050565b600090565b6124ee6124e1565b6124f98184846124bc565b505050565b5b8181101561251d576125126000826124e6565b6001810190506124ff565b5050565b601f8211156125625761253381612402565b61253c84612417565b8101602085101561254b578190505b61255f61255785612417565b8301826124fe565b50505b505050565b600082821c905092915050565b600061258560001984600802612567565b1980831691505092915050565b600061259e8383612574565b9150826002028217905092915050565b6125b782611db4565b67ffffffffffffffff8111156125d0576125cf611b85565b5b6125da825461233a565b6125e5828285612521565b600060209050601f8311600181146126185760008415612606578287015190505b6126108582612592565b865550612678565b601f19841661262686612402565b60005b8281101561264e57848901518255600182019150602085019450602081019050612629565b8683101561266b5784890151612667601f891682612574565b8355505b6001600288020188555050505b505050505050565b600081519050919050565b600082825260208201905092915050565b60006126a782612680565b6126b1818561268b565b93506126c1818560208601611dd0565b6126ca81611b74565b840191505092915050565b60006080820190506126ea6000830187611eea565b6126f76020830186611eea565b6127046040830185612000565b8181036060830152612716818461269c565b905095945050505050565b60008151905061273081611d25565b92915050565b60006020828403121561274c5761274b611b60565b5b600061275a84828501612721565b91505092915050565b60006040820190506127786000830185611eea565b6127856020830184612000565b9392505050565b7f4e487b7100000000000000000000000000000000000000000000000000000000600052601260045260246000fdfea2646970667358221220c56c49df25783998a6f8c122defb5e11c49bbdce2091b2f38c1cabed192095b564736f6c63430008140033",
  "linkReferences": {},
  "deployedLinkReferences": {}
}