{
  "_format": "hh-sol-artifact-1",
  "contractName": "AIArtNFT",
  "sourceName": "contracts/AIArtNFT.sol",
  "abi": [
    {
      "inputs": [],
      "stateMutability": "nonpayable",
      "type": "constructor"
    },
    {
      "inputs": [
        {
          "internalType": "address",
          "name": "sender",
          "type": "address"
        },
        {
          "internalType": "uint256",
          "name": "tokenId",
          "type": "uint256"
        },
        {
          "internalType": "address",
          "name": "owner",
          "type": "address"
        }
      ],
      "name": "ERC721IncorrectOwner",
      "type": "error"
    },
    {
      "inputs": [
        {
          "internalType": "address",
          "name": "operator",
          "type": "address"
        },
        {
          "internalType": "uint256",
          "name": "tokenId",
          "type": "uint256"
        }
      ],
      "name": "ERC721InsufficientApproval",
      "type": "error"
    },
    {
      "inputs": [
        {
          "internalType": "address",
          "name": "approver",
          "type": "address"
        }
      ],
      "name": "ERC721InvalidApprover",
      "type": "error"
    },
    {
      "inputs": [
        {
          "internalType": "address",
          "name": "operator",
          "type": "address"
        }
      ],
      "name": "ERC721InvalidOperator",
      "type": "error"
    },
    {
      "inputs": [
        {
          "internalType": "address",
          "name": "owner",
          "type": "address"
        }
      ],
      "name": "ERC721InvalidOwner",
      "type": "error"
    },
    {
      "inputs": [
        {
          "internalType": "address",
          "name": "receiver",
          "type": "address"
        }
      ],
      "name": "ERC721InvalidReceiver",
      "type": "error"
    },
    {
      "inputs": [
        {
          "internalType": "address",
          "name": "sender",
          "type": "address"
        }
      ],
      "name": "ERC721InvalidSender",
      "type": "error"
    },
    {
      "inputs": [
        {
          "internalType": "uint256",
          "name": "tokenId",
          "type": "uint256"
        }
      ],
      "name": "ERC721NonexistentToken",
      "type": "error"
    },
    {
      "inputs": [
        {
          "internalType": "address",
          "name": "owner",
          "type": "address"
        }
      ],
      "name": "OwnableInvalidOwner",
      "type": "error"
    },
    {
      "inputs": [
        {
          "internalType": "address",
          "name": "account",
          "type": "address"
        }
      ],
      "name": "OwnableUnauthorizedAccount",
      "type": "error"
    },
    {
      "anonymous": false,
      "inputs": [
        {
          "indexed": true,
          "internalType": "address",
          "name": "owner",
          "type": "address"
        },
        {
          "indexed": true,
          "internalType": "address",
          "name": "approved",
          "type": "address"
        },
        {
          "indexed": true,
          "internalType": "uint256",
          "name": "tokenId",
          "type": "uint256"
        }
      ],
      "name": "Approval",
      "type": "event"
    },
    {
      "anonymous": false,
      "inputs": [
        {
          "indexed": true,
          "internalType": "address",
          "name": "owner",
          "type": "address"
        },
        {
          "indexed": true,
          "internalType": "address",
          "name": "operator",
          "type": "address"
        },
        {
          "indexed": false,
          "internalType": "bool",
          "name": "approved",
          "type": "bool"
        }
      ],
      "name": "ApprovalForAll",
      "type": "event"
    },
    {
      "anonymous": false,
      "inputs": [
        {
          "indexed": false,
          "internalType": "uint256",
          "name": "_fromTokenId",
          "type": "uint256"
        },
        {
          "indexed": false,
          "internalType": "uint256",
          "name": "_toTokenId",
          "type": "uint256"
        }
      ],
      "name": "BatchMetadataUpdate",
      "type": "event"
    },
    {
      "anonymous": false,
      "inputs": [
        {
          "indexed": false,
          "internalType": "uint256",
          "name": "_tokenId",
          "type": "uint256"
        }
      ],
      "name": "MetadataUpdate",
      "type": "event"
    },
    {
      "anonymous": false,
      "inputs": [
        {
          "indexed": true,
          "internalType": "address",
          "name": "previousOwner",
          "type": "address"
        },
        {
          "indexed": true,
          "internalType": "address",
          "name": "newOwner",
          "type": "address"
        }
      ],
      "name": "OwnershipTransferred",
      "type": "event"
    },
    {
      "anonymous": false,
      "inputs": [
        {
          "indexed": true,
          "internalType": "address",
          "name": "from",
          "type": "address"
        },
        {
          "indexed": true,
          "internalType": "address",
          "name": "to",
          "type": "address"
        },
        {
          "indexed": true,
          "internalType": "uint256",
          "name": "tokenId",
          "type": "uint256"
        }
      ],
      "name": "Transfer",
      "type": "event"
    },
    {
      "inputs": [
        {
          "internalType": "address",
          "name": "to",
          "type": "address"
        },
        {
          "internalType": "uint256",
          "name": "tokenId",
          "type": "uint256"
        }
      ],
      "name": "approve",
      "outputs": [],
      "stateMutability": "nonpayable",
      "type": "function"
    },
    {
      "inputs": [
        {
          "internalType": "address",
          "name": "owner",
          "type": "address"
        }
      ],
      "name": "balanceOf",
      "outputs": [
        {
          "internalType": "uint256",
          "name": "",
          "type": "uint256"
        }
      ],
      "stateMutability": "view",
      "type": "function"
    },
    {
      "inputs": [
        {
          "internalType": "uint256",
          "name": "tokenId",
          "type": "uint256"
        }
      ],
      "name": "getApproved",
      "outputs": [
        {
          "internalType": "address",
          "name": "",
          "type": "address"
        }
      ],
      "stateMutability": "view",
      "type": "function"
    },
    {
      "inputs": [
        {
          "internalType": "address",
          "name": "owner",
          "type": "address"
        },
        {
          "internalType": "address",
          "name": "operator",
          "type": "address"
        }
      ],
      "name": "isApprovedForAll",
      "outputs": [
        {
          "internalType": "bool",
          "name": "",
          "type": "bool"
        }
      ],
      "stateMutability": "view",
      "type": "function"
    },
    {
      "inputs": [
        {
          "internalType": "address",
          "name": "to",
          "type": "address"
        },
        {
          "internalType": "string",
          "name": "metadataURI",
          "type": "string"
        }
      ],
      "name": "mintNFT",
      "outputs": [],
      "stateMutability": "nonpayable",
      "type": "function"
    },
    {
      "inputs": [],
      "name": "name",
      "outputs": [
        {
          "internalType": "string",
          "name": "",
          "type": "string"
        }
      ],
      "stateMutability": "view",
      "type": "function"
    },
    {
      "inputs": [],
      "name": "nextTokenId",
      "outputs": [
        {
          "internalType": "uint256",
          "name": "",
          "type": "uint256"
        }
      ],
      "stateMutability": "view",
      "type": "function"
    },
    {
      "inputs": [],
      "name": "owner",
      "outputs": [
        {
          "internalType": "address",
          "name": "",
          "type": "address"
        }
      ],
      "stateMutability": "view",
      "type": "function"
    },
    {
      "inputs": [
        {
          "internalType": "uint256",
          "name": "tokenId",
          "type": "uint256"
        }
      ],
      "name": "ownerOf",
      "outputs": [
        {
          "internalType": "address",
          "name": "",
          "type": "address"
        }
      ],
      "stateMutability": "view",
      "type": "function"
    },
    {
      "inputs": [],
      "name": "renounceOwnership",
      "outputs": [],
      "stateMutability": "nonpayable",
      "type": "function"
    },
    {
      "inputs": [
        {
          "internalType": "address",
          "name": "from",
          "type": "address"
        },
        {
          "internalType": "address",
          "name": "to",
          "type": "address"
        },
        {
          "internalType": "uint256",
          "name": "tokenId",
          "type": "uint256"
        }
      ],
      "name": "safeTransferFrom",
      "outputs": [],
      "stateMutability": "nonpayable",
      "type": "function"
    },
    {
      "inputs": [
        {
          "internalType": "address",
          "name": "from",
          "type": "address"
        },
        {
          "internalType": "address",
          "name": "to",
          "type": "address"
        },
        {
          "internalType": "uint256",
          "name": "tokenId",
          "type": "uint256"
        },
        {
          "internalType": "bytes",
          "name": "data",
          "type": "bytes"
        }
      ],
      "name": "safeTransferFrom",
      "outputs": [],
      "stateMutability": "nonpayable",
      "type": "function"
    },
    {
      "inputs": [
        {
          "internalType": "address",
          "name": "operator",
          "type": "address"
        },
        {
          "internalType": "bool",
          "name": "approved",
          "type": "bool"
        }
      ],
      "name": "setApprovalForAll",
      "outputs": [],
      "stateMutability": "nonpayable",
      "type": "function"
    },
    {
      "inputs": [
        {
          "internalType": "bytes4",
          "name": "interfaceId",
          "type": "bytes4"
        }
      ],
      "name": "supportsInterface",
      "outputs": [
        {
          "internalType": "bool",
          "name": "",
          "type": "bool"
        }
      ],
      "stateMutability": "view",
      "type": "function"
    },
    {
      "inputs": [],
      "name": "symbol",
      "outputs": [
        {
          "internalType": "string",
          "name": "",
          "type": "string"
        }
      ],
      "stateMutability": "view",
      "type": "function"
    },
    {
      "inputs": [
        {
          "internalType": "uint256",
          "name": "tokenId",
          "type": "uint256"
        }
      ],
      "name": "tokenURI",
      "outputs": [
        {
          "internalType": "string",
          "name": "",
          "type": "string"
        }
      ],
      "stateMutability": "view",
      "type": "function"
    },
    {
      "inputs": [
        {
          "internalType": "address",
          "name": "from",
          "type": "address"
        },
        {
          "internalType": "address",
          "name": "to",
          "type": "address"
        },
        {
          "internalType": "uint256",
          "name": "tokenId",
          "type": "uint256"
        }
      ],
      "name": "transferFrom",
      "outputs": [],
      "stateMutability": "nonpayable",
      "type": "function"
    },
    {
      "inputs": [
        {
          "internalType": "address",
          "name": "newOwner",
          "type": "address"
        }
      ],
      "name": "transferOwnership",
      "outputs": [],
      "stateMutability": "nonpayable",
      "type": "function"
    }
  ],
  "bytecode": "0x60806040523480156200001157600080fd5b50336040518060400160405280600a81526020017f414920417274204e4654000000000000000000000000000000000000000000008152506040518060400160405280600581526020017f4149415254000000000000000000000000000000000000000000000000000000815250816000908162000090919062000472565b508060019081620000a2919062000472565b505050600073ffffffffffffffffffffffffffffffffffffffff168173ffffffffffffffffffffffffffffffffffffffff16036200011a5760006040517f1e4fbdf70000000000000000000000000000000000000000000000000000000081526004016200011191906200059e565b60405180910390fd5b6200012b816200013260201b60201c565b50620005bb565b6000600760009054906101000a900473ffffffffffffffffffffffffffffffffffffffff16905081600760006101000a81548173ffffffffffffffffffffffffffffffffffffffff021916908373ffffffffffffffffffffffffffffffffffffffff1602179055508173ffffffffffffffffffffffffffffffffffffffff168173ffffffffffffffffffffffffffffffffffffffff167f8be0079c531659141344cd1fd0a4f28419497f9722a3daafe3b4186f6b6457e060405160405180910390a35050565b600081519050919050565b7f4e487b7100000000000000000000000000000000000000000000000000000000600052604160045260246000fd5b7f4e487b7100000000000000000000000000000000000000000000000000000000600052602260045260246000fd5b600060028204905060018216806200027a57607f821691505b60208210810362000290576200028f62000232565b5b50919050565b60008190508160005260206000209050919050565b60006020601f8301049050919050565b600082821b905092915050565b600060088302620002fa7fffffffffffffffffffffffffffffffffffffffffffffffffffffffffffffffff82620002bb565b620003068683620002bb565b95508019841693508086168417925050509392505050565b6000819050919050565b6000819050919050565b6000620003536200034d62000347846200031e565b62000328565b6200031e565b9050919050565b6000819050919050565b6200036f8362000332565b620003876200037e826200035a565b848454620002c8565b825550505050565b600090565b6200039e6200038f565b620003ab81848462000364565b505050565b5b81811015620003d357620003c760008262000394565b600181019050620003b1565b5050565b601f8211156200042257620003ec8162000296565b620003f784620002ab565b8101602085101562000407578190505b6200041f6200041685620002ab565b830182620003b0565b50505b505050565b600082821c905092915050565b6000620004476000198460080262000427565b1980831691505092915050565b600062000462838362000434565b9150826002028217905092915050565b6200047d82620001f8565b67ffffffffffffffff81111562000499576200049862000203565b5b620004a5825462000261565b620004b2828285620003d7565b600060209050601f831160018114620004ea5760008415620004d5578287015190505b620004e1858262000454565b86555062000551565b601f198416620004fa8662000296565b60005b828110156200052457848901518255600182019150602085019450602081019050620004fd565b8683101562000544578489015162000540601f89168262000434565b8355505b6001600288020188555050505b505050505050565b600073ffffffffffffffffffffffffffffffffffffffff82169050919050565b6000620005868262000559565b9050919050565b620005988162000579565b82525050565b6000602082019050620005b560008301846200058d565b92915050565b61269780620005cb6000396000f3fe608060405234801561001057600080fd5b50600436106101165760003560e01c806375794a3c116100a2578063b88d4fde11610071578063b88d4fde146102cd578063c87b56dd146102e9578063e985e9c514610319578063eacabe1414610349578063f2fde38b1461036557610116565b806375794a3c146102575780638da5cb5b1461027557806395d89b4114610293578063a22cb465146102b157610116565b806323b872dd116100e957806323b872dd146101b557806342842e0e146101d15780636352211e146101ed57806370a082311461021d578063715018a61461024d57610116565b806301ffc9a71461011b57806306fdde031461014b578063081812fc14610169578063095ea7b314610199575b600080fd5b61013560048036038101906101309190611aef565b610381565b6040516101429190611b37565b60405180910390f35b6101536103e2565b6040516101609190611be2565b60405180910390f35b610183600480360381019061017e9190611c3a565b610474565b6040516101909190611ca8565b60405180910390f35b6101b360048036038101906101ae9190611cef565b610490565b005b6101cf60048036038101906101ca9190611d2f565b6104a6565b005b6101eb60048036038101906101e69190611d2f565b6105a8565b005b61020760048036038101906102029190611c3a565b6105c8565b6040516102149190611ca8565b60405180910390f35b61023760048036038101906102329190611d82565b6105da565b6040516102449190611dbe565b60405180910390f35b610255610694565b005b61025f6106a8565b60405161026c9190611dbe565b60405180910390f35b61027d6106ae565b60405161028a9190611ca8565b60405180910390f35b61029b6106d8565b6040516102a89190611be2565b60405180910390f35b6102cb60048036038101906102c69190611e05565b61076a565b005b6102e760048036038101906102e29190611f7a565b610780565b005b61030360048036038101906102fe9190611c3a565b6107a5565b6040516103109190611be2565b60405180910390f35b610333600480360381019061032e9190611ffd565b6108b8565b6040516103409190611b37565b60405180910390f35b610363600480360381019061035e91906120de565b61094c565b005b61037f600480360381019061037a9190611d82565b61098c565b005b6000634906490660e01b7bffffffffffffffffffffffffffffffffffffffffffffffffffffffff1916827bffffffffffffffffffffffffffffffffffffffffffffffffffffffff191614806103db57506103da82610a12565b5b9050919050565b6060600080546103f190612169565b80601f016020809104026020016040519081016040528092919081815260200182805461041d90612169565b801561046a5780601f1061043f5761010080835404028352916020019161046a565b820191906000526020600020905b81548152906001019060200180831161044d57829003601f168201915b5050505050905090565b600061047f82610af4565b5061048982610b7c565b9050919050565b6104a2828261049d610bb9565b610bc1565b5050565b600073ffffffffffffffffffffffffffffffffffffffff168273ffffffffffffffffffffffffffffffffffffffff16036105185760006040517f64a0ae9200000000000000000000000000000000000000000000000000000000815260040161050f9190611ca8565b60405180910390fd5b600061052c8383610527610bb9565b610bd3565b90508373ffffffffffffffffffffffffffffffffffffffff168173ffffffffffffffffffffffffffffffffffffffff16146105a2578382826040517f64283d7b0000000000000000000000000000000000000000000000000000000081526004016105999392919061219a565b60405180910390fd5b50505050565b6105c383838360405180602001604052806000815250610780565b505050565b60006105d382610af4565b9050919050565b60008073ffffffffffffffffffffffffffffffffffffffff168273ffffffffffffffffffffffffffffffffffffffff160361064d5760006040517f89c62b640000000000000000000000000000000000000000000000000000000081526004016106449190611ca8565b60405180910390fd5b600360008373ffffffffffffffffffffffffffffffffffffffff1673ffffffffffffffffffffffffffffffffffffffff168152602001908152602001600020549050919050565b61069c610ded565b6106a66000610e74565b565b60085481565b6000600760009054906101000a900473ffffffffffffffffffffffffffffffffffffffff16905090565b6060600180546106e790612169565b80601f016020809104026020016040519081016040528092919081815260200182805461071390612169565b80156107605780601f1061073557610100808354040283529160200191610760565b820191906000526020600020905b81548152906001019060200180831161074357829003601f168201915b5050505050905090565b61077c610775610bb9565b8383610f3a565b5050565b61078b8484846104a6565b61079f610796610bb9565b858585856110a9565b50505050565b60606107b082610af4565b5060006006600084815260200190815260200160002080546107d190612169565b80601f01602080910402602001604051908101604052809291908181526020018280546107fd90612169565b801561084a5780601f1061081f5761010080835404028352916020019161084a565b820191906000526020600020905b81548152906001019060200180831161082d57829003601f168201915b50505050509050600061085b61125a565b905060008151036108705781925050506108b3565b6000825111156108a557808260405160200161088d92919061220d565b604051602081830303815290604052925050506108b3565b6108ae84611271565b925050505b919050565b6000600560008473ffffffffffffffffffffffffffffffffffffffff1673ffffffffffffffffffffffffffffffffffffffff16815260200190815260200160002060008373ffffffffffffffffffffffffffffffffffffffff1673ffffffffffffffffffffffffffffffffffffffff16815260200190815260200160002060009054906101000a900460ff16905092915050565b610954610ded565b6000600854905061096583826112da565b61096f81836112f8565b6008600081548092919061098290612260565b9190505550505050565b610994610ded565b600073ffffffffffffffffffffffffffffffffffffffff168173ffffffffffffffffffffffffffffffffffffffff1603610a065760006040517f1e4fbdf70000000000000000000000000000000000000000000000000000000081526004016109fd9190611ca8565b60405180910390fd5b610a0f81610e74565b50565b60007f80ac58cd000000000000000000000000000000000000000000000000000000007bffffffffffffffffffffffffffffffffffffffffffffffffffffffff1916827bffffffffffffffffffffffffffffffffffffffffffffffffffffffff19161480610add57507f5b5e139f000000000000000000000000000000000000000000000000000000007bffffffffffffffffffffffffffffffffffffffffffffffffffffffff1916827bffffffffffffffffffffffffffffffffffffffffffffffffffffffff1916145b80610aed5750610aec82611354565b5b9050919050565b600080610b00836113be565b9050600073ffffffffffffffffffffffffffffffffffffffff168173ffffffffffffffffffffffffffffffffffffffff1603610b7357826040517f7e273289000000000000000000000000000000000000000000000000000000008152600401610b6a9190611dbe565b60405180910390fd5b80915050919050565b60006004600083815260200190815260200160002060009054906101000a900473ffffffffffffffffffffffffffffffffffffffff169050919050565b600033905090565b610bce83838360016113fb565b505050565b600080610bdf846113be565b9050600073ffffffffffffffffffffffffffffffffffffffff168373ffffffffffffffffffffffffffffffffffffffff1614610c2157610c208184866115c0565b5b600073ffffffffffffffffffffffffffffffffffffffff168173ffffffffffffffffffffffffffffffffffffffff1614610cb257610c636000856000806113fb565b6001600360008373ffffffffffffffffffffffffffffffffffffffff1673ffffffffffffffffffffffffffffffffffffffff168152602001908152602001600020600082825403925050819055505b600073ffffffffffffffffffffffffffffffffffffffff168573ffffffffffffffffffffffffffffffffffffffff1614610d35576001600360008773ffffffffffffffffffffffffffffffffffffffff1673ffffffffffffffffffffffffffffffffffffffff168152602001908152602001600020600082825401925050819055505b846002600086815260200190815260200160002060006101000a81548173ffffffffffffffffffffffffffffffffffffffff021916908373ffffffffffffffffffffffffffffffffffffffff160217905550838573ffffffffffffffffffffffffffffffffffffffff168273ffffffffffffffffffffffffffffffffffffffff167fddf252ad1be2c89b69c2b068fc378daa952ba7f163c4a11628f55a4df523b3ef60405160405180910390a4809150509392505050565b610df5610bb9565b73ffffffffffffffffffffffffffffffffffffffff16610e136106ae565b73ffffffffffffffffffffffffffffffffffffffff1614610e7257610e36610bb9565b6040517f118cdaa7000000000000000000000000000000000000000000000000000000008152600401610e699190611ca8565b60405180910390fd5b565b6000600760009054906101000a900473ffffffffffffffffffffffffffffffffffffffff16905081600760006101000a81548173ffffffffffffffffffffffffffffffffffffffff021916908373ffffffffffffffffffffffffffffffffffffffff1602179055508173ffffffffffffffffffffffffffffffffffffffff168173ffffffffffffffffffffffffffffffffffffffff167f8be0079c531659141344cd1fd0a4f28419497f9722a3daafe3b4186f6b6457e060405160405180910390a35050565b600073ffffffffffffffffffffffffffffffffffffffff168273ffffffffffffffffffffffffffffffffffffffff1603610fab57816040517f5b08ba18000000000000000000000000000000000000000000000000000000008152600401610fa29190611ca8565b60405180910390fd5b80600560008573ffffffffffffffffffffffffffffffffffffffff1673ffffffffffffffffffffffffffffffffffffffff16815260200190815260200160002060008473ffffffffffffffffffffffffffffffffffffffff1673ffffffffffffffffffffffffffffffffffffffff16815260200190815260200160002060006101000a81548160ff0219169083151502179055508173ffffffffffffffffffffffffffffffffffffffff168373ffffffffffffffffffffffffffffffffffffffff167f17307eab39ab6107e8899845ad3d59bd9653f200f220920489ca2b5937696c318360405161109c9190611b37565b60405180910390a3505050565b60008373ffffffffffffffffffffffffffffffffffffffff163b1115611253578273ffffffffffffffffffffffffffffffffffffffff1663150b7a02868685856040518563ffffffff1660e01b815260040161110894939291906122fd565b6020604051808303816000875af192505050801561114457506040513d601f19601f82011682018060405250810190611141919061235e565b60015b6111c8573d8060008114611174576040519150601f19603f3d011682016040523d82523d6000602084013e611179565b606091505b5060008151036111c057836040517f64a0ae920000000000000000000000000000000000000000000000000000000081526004016111b79190611ca8565b60405180910390fd5b805181602001fd5b63150b7a0260e01b7bffffffffffffffffffffffffffffffffffffffffffffffffffffffff1916817bffffffffffffffffffffffffffffffffffffffffffffffffffffffff19161461125157836040517f64a0ae920000000000000000000000000000000000000000000000000000000081526004016112489190611ca8565b60405180910390fd5b505b5050505050565b606060405180602001604052806000815250905090565b606061127c82610af4565b50600061128761125a565b905060008151116112a757604051806020016040528060008152506112d2565b806112b184611684565b6040516020016112c292919061220d565b6040516020818303038152906040525b915050919050565b6112f4828260405180602001604052806000815250611752565b5050565b806006600084815260200190815260200160002090816113189190612537565b507ff8e1a15aba9398e019f0b49df1a4fde98ee17ae345cb5f6b5e2c27f5033e8ce7826040516113489190611dbe565b60405180910390a15050565b60007f01ffc9a7000000000000000000000000000000000000000000000000000000007bffffffffffffffffffffffffffffffffffffffffffffffffffffffff1916827bffffffffffffffffffffffffffffffffffffffffffffffffffffffff1916149050919050565b60006002600083815260200190815260200160002060009054906101000a900473ffffffffffffffffffffffffffffffffffffffff169050919050565b80806114345750600073ffffffffffffffffffffffffffffffffffffffff168273ffffffffffffffffffffffffffffffffffffffff1614155b1561156857600061144484610af4565b9050600073ffffffffffffffffffffffffffffffffffffffff168373ffffffffffffffffffffffffffffffffffffffff16141580156114af57508273ffffffffffffffffffffffffffffffffffffffff168173ffffffffffffffffffffffffffffffffffffffff1614155b80156114c257506114c081846108b8565b155b1561150457826040517fa9fbf51f0000000000000000000000000000000000000000000000000000000081526004016114fb9190611ca8565b60405180910390fd5b811561156657838573ffffffffffffffffffffffffffffffffffffffff168273ffffffffffffffffffffffffffffffffffffffff167f8c5be1e5ebec7d5bd14f71427d1e84f3dd0314c0f7b2291e5b200ac8c7c3b92560405160405180910390a45b505b836004600085815260200190815260200160002060006101000a81548173ffffffffffffffffffffffffffffffffffffffff021916908373ffffffffffffffffffffffffffffffffffffffff16021790555050505050565b6115cb838383611776565b61167f57600073ffffffffffffffffffffffffffffffffffffffff168373ffffffffffffffffffffffffffffffffffffffff160361164057806040517f7e2732890000000000000000000000000000000000000000000000000000000081526004016116379190611dbe565b60405180910390fd5b81816040517f177e802f000000000000000000000000000000000000000000000000000000008152600401611676929190612609565b60405180910390fd5b505050565b60606000600161169384611837565b01905060008167ffffffffffffffff8111156116b2576116b1611e4f565b5b6040519080825280601f01601f1916602001820160405280156116e45781602001600182028036833780820191505090505b509050600082602001820190505b600115611747578080600190039150507f3031323334353637383961626364656600000000000000000000000000000000600a86061a8153600a858161173b5761173a612632565b5b049450600085036116f2575b819350505050919050565b61175c838361198a565b611771611767610bb9565b60008585856110a9565b505050565b60008073ffffffffffffffffffffffffffffffffffffffff168373ffffffffffffffffffffffffffffffffffffffff161415801561182e57508273ffffffffffffffffffffffffffffffffffffffff168473ffffffffffffffffffffffffffffffffffffffff1614806117ef57506117ee84846108b8565b5b8061182d57508273ffffffffffffffffffffffffffffffffffffffff1661181583610b7c565b73ffffffffffffffffffffffffffffffffffffffff16145b5b90509392505050565b600080600090507a184f03e93ff9f4daa797ed6e38ed64bf6a1f0100000000000000008310611895577a184f03e93ff9f4daa797ed6e38ed64bf6a1f010000000000000000838161188b5761188a612632565b5b0492506040810190505b6d04ee2d6d415b85acef810000000083106118d2576d04ee2d6d415b85acef810000000083816118c8576118c7612632565b5b0492506020810190505b662386f26fc10000831061190157662386f26fc1000083816118f7576118f6612632565b5b0492506010810190505b6305f5e100831061192a576305f5e10083816119205761191f612632565b5b0492506008810190505b612710831061194f57612710838161194557611944612632565b5b0492506004810190505b60648310611972576064838161196857611967612632565b5b0492506002810190505b600a8310611981576001810190505b80915050919050565b600073ffffffffffffffffffffffffffffffffffffffff168273ffffffffffffffffffffffffffffffffffffffff16036119fc5760006040517f64a0ae920000000000000000000000000000000000000000000000000000000081526004016119f39190611ca8565b60405180910390fd5b6000611a0a83836000610bd3565b9050600073ffffffffffffffffffffffffffffffffffffffff168173ffffffffffffffffffffffffffffffffffffffff1614611a7e5760006040517f73c6ac6e000000000000000000000000000000000000000000000000000000008152600401611a759190611ca8565b60405180910390fd5b505050565b6000604051905090565b600080fd5b600080fd5b60007fffffffff0000000000000000000000000000000000000000000000000000000082169050919050565b611acc81611a97565b8114611ad757600080fd5b50565b600081359050611ae981611ac3565b92915050565b600060208284031215611b0557611b04611a8d565b5b6000611b1384828501611ada565b91505092915050565b60008115159050919050565b611b3181611b1c565b82525050565b6000602082019050611b4c6000830184611b28565b92915050565b600081519050919050565b600082825260208201905092915050565b60005b83811015611b8c578082015181840152602081019050611b71565b60008484015250505050565b6000601f19601f8301169050919050565b6000611bb482611b52565b611bbe8185611b5d565b9350611bce818560208601611b6e565b611bd781611b98565b840191505092915050565b60006020820190508181036000830152611bfc8184611ba9565b905092915050565b6000819050919050565b611c1781611c04565b8114611c2257600080fd5b50565b600081359050611c3481611c0e565b92915050565b600060208284031215611c5057611c4f611a8d565b5b6000611c5e84828501611c25565b91505092915050565b600073ffffffffffffffffffffffffffffffffffffffff82169050919050565b6000611c9282611c67565b9050919050565b611ca281611c87565b82525050565b6000602082019050611cbd6000830184611c99565b92915050565b611ccc81611c87565b8114611cd757600080fd5b50565b600081359050611ce981611cc3565b92915050565b60008060408385031215611d0657611d05611a8d565b5b6000611d1485828601611cda565b9250506020611d2585828601611c25565b9150509250929050565b600080600060608486031215611d4857611d47611a8d565b5b6000611d5686828701611cda565b9350506020611d6786828701611cda565b9250506040611d7886828701611c25565b9150509250925092565b600060208284031215611d9857611d97611a8d565b5b6000611da684828501611cda565b91505092915050565b611db881611c04565b82525050565b6000602082019050611dd36000830184611daf565b92915050565b611de281611b1c565b8114611ded57600080fd5b50565b600081359050611dff81611dd9565b92915050565b60008060408385031215611e1c57611e1b611a8d565b5b6000611e2a85828601611cda565b9250506020611e3b85828601611df0565b9150509250929050565b600080fd5b600080fd5b7f4e487b7100000000000000000000000000000000000000000000000000000000600052604160045260246000fd5b611e8782611b98565b810181811067ffffffffffffffff82111715611ea657611ea5611e4f565b5b80604052505050565b6000611eb9611a83565b9050611ec58282611e7e565b919050565b600067ffffffffffffffff821115611ee557611ee4611e4f565b5b611eee82611b98565b9050602081019050919050565b82818337600083830152505050565b6000611f1d611f1884611eca565b611eaf565b905082815260208101848484011115611f3957611f38611e4a565b5b611f44848285611efb565b509392505050565b600082601f830112611f6157611f60611e45565b5b8135611f71848260208601611f0a565b91505092915050565b60008060008060808587031215611f9457611f93611a8d565b5b6000611fa287828801611cda565b9450506020611fb387828801611cda565b9350506040611fc487828801611c25565b925050606085013567ffffffffffffffff811115611fe557611fe4611a92565b5b611ff187828801611f4c565b91505092959194509250565b6000806040838503121561201457612013611a8d565b5b600061202285828601611cda565b925050602061203385828601611cda565b9150509250929050565b600067ffffffffffffffff82111561205857612057611e4f565b5b61206182611b98565b9050602081019050919050565b600061208161207c8461203d565b611eaf565b90508281526020810184848401111561209d5761209c611e4a565b5b6120a8848285611efb565b509392505050565b600082601f8301126120c5576120c4611e45565b5b81356120d584826020860161206e565b91505092915050565b600080604083850312156120f5576120f4611a8d565b5b600061210385828601611cda565b925050602083013567ffffffffffffffff81111561212457612123611a92565b5b612130858286016120b0565b9150509250929050565b7f4e487b7100000000000000000000000000000000000000000000000000000000600052602260045260246000fd5b6000600282049050600182168061218157607f821691505b6020821081036121945761219361213a565b5b50919050565b60006060820190506121af6000830186611c99565b6121bc6020830185611daf565b6121c96040830184611c99565b949350505050565b600081905092915050565b60006121e782611b52565b6121f181856121d1565b9350612201818560208601611b6e565b80840191505092915050565b600061221982856121dc565b915061222582846121dc565b91508190509392505050565b7f4e487b7100000000000000000000000000000000000000000000000000000000600052601160045260246000fd5b600061226b82611c04565b91507fffffffffffffffffffffffffffffffffffffffffffffffffffffffffffffffff820361229d5761229c612231565b5b600182019050919050565b600081519050919050565b600082825260208201905092915050565b60006122cf826122a8565b6122d981856122b3565b93506122e9818560208601611b6e565b6122f281611b98565b840191505092915050565b60006080820190506123126000830187611c99565b61231f6020830186611c99565b61232c6040830185611daf565b818103606083015261233e81846122c4565b905095945050505050565b60008151905061235881611ac3565b92915050565b60006020828403121561237457612373611a8d565b5b600061238284828501612349565b91505092915050565b60008190508160005260206000209050919050565b60006020601f8301049050919050565b600082821b905092915050565b6000600883026123ed7fffffffffffffffffffffffffffffffffffffffffffffffffffffffffffffffff826123b0565b6123f786836123b0565b95508019841693508086168417925050509392505050565b6000819050919050565b600061243461242f61242a84611c04565b61240f565b611c04565b9050919050565b6000819050919050565b61244e83612419565b61246261245a8261243b565b8484546123bd565b825550505050565b600090565b61247761246a565b612482818484612445565b505050565b5b818110156124a65761249b60008261246f565b600181019050612488565b5050565b601f8211156124eb576124bc8161238b565b6124c5846123a0565b810160208510156124d4578190505b6124e86124e0856123a0565b830182612487565b50505b505050565b600082821c905092915050565b600061250e600019846008026124f0565b1980831691505092915050565b600061252783836124fd565b9150826002028217905092915050565b61254082611b52565b67ffffffffffffffff81111561255957612558611e4f565b5b6125638254612169565b61256e8282856124aa565b600060209050601f8311600181146125a1576000841561258f578287015190505b612599858261251b565b865550612601565b601f1984166125af8661238b565b60005b828110156125d7578489015182556001820191506020850194506020810190506125b2565b868310156125f457848901516125f0601f8916826124fd565b8355505b6001600288020188555050505b505050505050565b600060408201905061261e6000830185611c99565b61262b6020830184611daf565b9392505050565b7f4e487b7100000000000000000000000000000000000000000000000000000000600052601260045260246000fdfea2646970667358221220eaf1452b4087532254c0d1309ef9e19575ae070541260f031f90f9d55e567d7864736f6c63430008150033",
  "linkReferences": {},
  "deployedLinkReferences": {}
}